{"contracts/AgentDelegationRegistry.sol":{"AgentDelegationRegistry":{"abi":[{"inputs":[],"stateMutability":"nonpayable","type":"constructor"},{"inputs":[],"name":"AccessControlBadConfirmation","type":"error"},{"inputs":[{"internalType":"address","name":"account","type":"address"},{"internalType":"bytes32","name":"neededRole","type":"bytes32"}],"name":"AccessControlUnauthorizedAccount","type":"error"},{"anonymous":false,"inputs":[{"indexed":true,"internalType":"bytes32","name":"agentChecksum","type":"bytes32"},{"indexed":false,"internalType":"uint256","name":"timestamp","type":"uint256"}],"name":"DelegationExpired","type":"event"},{"anonymous":false,"inputs":[{"indexed":true,"internalType":"bytes32","name":"agentChecksum","type":"bytes32"},{"indexed":true,"internalType":"bytes32","name":"parentChecksum","type":"bytes32"},{"indexed":true,"internalType":"address","name":"registeredBy","type":"address"},{"indexed":false,"internalType":"uint256","name":"expiresAt","type":"uint256"},{"indexed":false,"internalType":"string","name":"scope","type":"string"}],"name":"DelegationRegistered","type":"event"},{"anonymous":false,"inputs":[{"indexed":true,"internalType":"bytes32","name":"agentChecksum","type":"bytes32"},{"indexed":true,"internalType":"address","name":"revokedBy","type":"address"},{"indexed":false,"internalType":"uint256","name":"timestamp","type":"uint256"},{"indexed":false,"internalType":"string","name":"reason","type":"string"}],"name":"DelegationRevoked","type":"event"},{"anonymous":false,"inputs":[{"indexed":true,"internalType":"bytes32","name":"role","type":"bytes32"},{"indexed":true,"internalType":"bytes32","name":"previousAdminRole","type":"bytes32"},{"indexed":true,"internalType":"bytes32","name":"newAdminRole","type":"bytes32"}],"name":"RoleAdminChanged","type":"event"},{"anonymous":false,"inputs":[{"indexed":true,"internalType":"bytes32","name":"role","type":"bytes32"},{"indexed":true,"internalType":"address","name":"account","type":"address"},{"indexed":true,"internalType":"address","name":"sender","type":"address"}],"name":"RoleGranted","type":"event"},{"anonymous":false,"inputs":[{"indexed":true,"internalType":"bytes32","name":"role","type":"bytes32"},{"indexed":true,"internalType":"address","name":"account","type":"address"},{"indexed":true,"internalType":"address","name":"sender","type":"address"}],"name":"RoleRevoked","type":"event"},{"inputs":[],"name":"ADMIN_ROLE","outputs":[{"internalType":"bytes32","name":"","type":"bytes32"}],"stateMutability":"view","type":"function"},{"inputs":[],"name":"DEFAULT_ADMIN_ROLE","outputs":[{"internalType":"bytes32","name":"","type":"bytes32"}],"stateMutability":"view","type":"function"},{"inputs":[],"name":"DELEGATOR_ROLE","outputs":[{"internalType":"bytes32","name":"","type":"bytes32"}],"stateMutability":"view","type":"function"},{"inputs":[],"name":"activeDelegations","outputs":[{"internalType":"uint256","name":"","type":"uint256"}],"stateMutability":"view","type":"function"},{"inputs":[{"internalType":"bytes32","name":"agentChecksum","type":"bytes32"}],"name":"getDelegation","outputs":[{"internalType":"bytes32","name":"parentChecksum","type":"bytes32"},{"internalType":"address","name":"registeredBy","type":"address"},{"internalType":"uint256","name":"createdAt","type":"uint256"},{"internalType":"uint256","name":"expiresAt","type":"uint256"},{"internalType":"bool","name":"active","type":"bool"},{"internalType":"bool","name":"revoked","type":"bool"},{"internalType":"string","name":"scope","type":"string"}],"stateMutability":"view","type":"function"},{"inputs":[{"internalType":"bytes32","name":"role","type":"bytes32"}],"name":"getRoleAdmin","outputs":[{"internalType":"bytes32","name":"","type":"bytes32"}],"stateMutability":"view","type":"function"},{"inputs":[{"internalType":"address","name":"account","type":"address"}],"name":"grantDelegator","outputs":[],"stateMutability":"nonpayable","type":"function"},{"inputs":[{"internalType":"bytes32","name":"role","type":"bytes32"},{"internalType":"address","name":"account","type":"address"}],"name":"grantRole","outputs":[],"stateMutability":"nonpayable","type":"function"},{"inputs":[{"internalType":"bytes32","name":"role","type":"bytes32"},{"internalType":"address","name":"account","type":"address"}],"name":"hasRole","outputs":[{"internalType":"bool","name":"","type":"bool"}],"stateMutability":"view","type":"function"},{"inputs":[{"internalType":"bytes32","name":"agentChecksum","type":"bytes32"}],"name":"isDelegationActive","outputs":[{"internalType":"bool","name":"","type":"bool"}],"stateMutability":"view","type":"function"},{"inputs":[{"internalType":"bytes32","name":"agentChecksum","type":"bytes32"},{"internalType":"bytes32","name":"parentChecksum","type":"bytes32"},{"internalType":"uint256","name":"expiresAt","type":"uint256"},{"internalType":"string","name":"scope","type":"string"}],"name":"registerDelegation","outputs":[],"stateMutability":"nonpayable","type":"function"},{"inputs":[{"internalType":"bytes32","name":"role","type":"bytes32"},{"internalType":"address","name":"callerConfirmation","type":"address"}],"name":"renounceRole","outputs":[],"stateMutability":"nonpayable","type":"function"},{"inputs":[{"internalType":"bytes32","name":"agentChecksum","type":"bytes32"},{"internalType":"string","name":"reason","type":"string"}],"name":"revokeDelegation","outputs":[],"stateMutability":"nonpayable","type":"function"},{"inputs":[{"internalType":"address","name":"account","type":"address"}],"name":"revokeDelegator","outputs":[],"stateMutability":"nonpayable","type":"function"},{"inputs":[{"internalType":"bytes32","name":"role","type":"bytes32"},{"internalType":"address","name":"account","type":"address"}],"name":"revokeRole","outputs":[],"stateMutability":"nonpayable","type":"function"},{"inputs":[{"internalType":"bytes4","name":"interfaceId","type":"bytes4"}],"name":"supportsInterface","outputs":[{"internalType":"bool","name":"","type":"bool"}],"stateMutability":"view","type":"function"},{"inputs":[],"name":"totalDelegations","outputs":[{"internalType":"uint256","name":"","type":"uint256"}],"stateMutability":"view","type":"function"}],"evm":{"bytecode":{"linkReferences":{},"object":"608060405234801561001057600080fd5b5061001c60003361004d565b506100477f1948e62cb88693562db3600e12aba035ba28da4a0626473ef28234bb890540733361004d565b506100f9565b6000828152602081815260408083206001600160a01b038516845290915281205460ff166100ef576000838152602081815260408083206001600160a01b03861684529091529020805460ff191660011790556100a73390565b6001600160a01b0316826001600160a01b0316847f2f8788117e7eff1d82e926ec794901d17c78024a50270940304540a733656f0d60405160405180910390a45060016100f3565b5060005b92915050565b610de8806101086000396000f3fe608060405234801561001057600080fd5b506004361061010b5760003560e01c806351b80dfc116100a257806391d148541161007157806391d148541461021d57806397b8a3a714610230578063a217fddf146101ef578063ca89ab9c14610245578063d547741f1461025857600080fd5b806351b80dfc146101c957806375b238fc146101ef57806375be0b42146101f75780638407e1e61461020a57600080fd5b80632d4f7602116100de5780632d4f7602146101875780632f2ff15d1461019057806336568abe146101a35780634da2529c146101b657600080fd5b806301ffc9a71461011057806305b9cb3c1461013857806315117e841461014f578063248a9ca314610164575b600080fd5b61012361011e366004610993565b61026b565b60405190151581526020015b60405180910390f35b61014160035481565b60405190815260200161012f565b61016261015d366004610a06565b6102a2565b005b610141610172366004610a52565b60009081526020819052604090206001015490565b61014160045481565b61016261019e366004610a87565b610395565b6101626101b1366004610a87565b6103c0565b6101626101c4366004610ab3565b6103f8565b6101dc6101d7366004610a52565b61067a565b60405161012f9796959493929190610b14565b610141600081565b610123610205366004610a52565b61077a565b610162610218366004610b9d565b6107bc565b61012361022b366004610a87565b6107e3565b610141600080516020610d9383398151915281565b610162610253366004610b9d565b61080c565b610162610266366004610a87565b61082b565b60006001600160e01b03198216637965db0b60e01b148061029c57506301ffc9a760e01b6001600160e01b03198316145b92915050565b600080516020610d938339815191526102ba81610850565b60008481526001602052604090206004015460ff166103185760405162461bcd60e51b815260206004820152601560248201527444656c65676174696f6e206e6f742061637469766560581b60448201526064015b60405180910390fd5b60008481526001602052604081206004908101805461ffff191661010017905580549161034483610bce565b9190505550336001600160a01b0316847f035a1e95e78dffd94df4de2ad5b663ad63193a0596eecb43d5fc76fed9006ae342868660405161038793929190610be5565b60405180910390a350505050565b6000828152602081905260409020600101546103b081610850565b6103ba838361085d565b50505050565b6001600160a01b03811633146103e95760405163334bd91960e11b815260040160405180910390fd5b6103f382826108ef565b505050565b600080516020610d9383398151915261041081610850565b60008681526001602052604090206004015460ff16156104725760405162461bcd60e51b815260206004820152601960248201527f44656c65676174696f6e20616c72656164792061637469766500000000000000604482015260640161030f565b4284116104c15760405162461bcd60e51b815260206004820152601c60248201527f457870697279206d75737420626520696e207468652066757475726500000000604482015260640161030f565b6040518060e00160405280868152602001336001600160a01b0316815260200142815260200185815260200160011515815260200160001515815260200184848080601f016020809104026020016040519081016040528093929190818152602001838380828437600092018290525093909452505088815260016020818152604092839020855181559085015191810180546001600160a01b039093166001600160a01b03199093169290921790915590830151600282015560608301516003820155608083015160048201805460a086015115156101000261ff00199315159390931661ffff199091161791909117905560c083015190915060058201906105cb9082610cb9565b50506002805460018101825560009182527f405787fa12a823e0f2b7631cc41b3ba8828b3321ca811111fa75cd3aa3bb5ace018890556003805492509061061183610d79565b90915550506004805490600061062683610d79565b9190505550336001600160a01b031685877fe92c6290037630395f8330cce37a9f2b1a565ef0bfddf67ea50b26ef7cdfccd987878760405161066a93929190610be5565b60405180910390a4505050505050565b6000818152600160208190526040822080549181015460028201546003830154600484015460058501805488978897889788978897606097939694956001600160a01b03909316949193909260ff8083169361010090930416919081906106e090610c31565b80601f016020809104026020016040519081016040528092919081815260200182805461070c90610c31565b80156107595780601f1061072e57610100808354040283529160200191610759565b820191906000526020600020905b81548152906001019060200180831161073c57829003601f168201915b50505050509050975097509750975097509750975050919395979092949650565b6000818152600160205260408120600481015460ff1680156107a657506004810154610100900460ff16155b80156107b55750806003015442105b9392505050565b60006107c781610850565b6107df600080516020610d9383398151915283610395565b5050565b6000918252602082815260408084206001600160a01b0393909316845291905290205460ff1690565b600061081781610850565b6107df600080516020610d93833981519152835b60008281526020819052604090206001015461084681610850565b6103ba83836108ef565b61085a813361095a565b50565b600061086983836107e3565b6108e7576000838152602081815260408083206001600160a01b03861684529091529020805460ff1916600117905561089f3390565b6001600160a01b0316826001600160a01b0316847f2f8788117e7eff1d82e926ec794901d17c78024a50270940304540a733656f0d60405160405180910390a450600161029c565b50600061029c565b60006108fb83836107e3565b156108e7576000838152602081815260408083206001600160a01b0386168085529252808320805460ff1916905551339286917ff6391f5c32d9c69d2a47ea670b442974b53935d1edc7fd64eb21e047a839171b9190a450600161029c565b61096482826107e3565b6107df5760405163e2517d3f60e01b81526001600160a01b03821660048201526024810183905260440161030f565b6000602082840312156109a557600080fd5b81356001600160e01b0319811681146107b557600080fd5b60008083601f8401126109cf57600080fd5b50813567ffffffffffffffff8111156109e757600080fd5b6020830191508360208285010111156109ff57600080fd5b9250929050565b600080600060408486031215610a1b57600080fd5b83359250602084013567ffffffffffffffff811115610a3957600080fd5b610a45868287016109bd565b9497909650939450505050565b600060208284031215610a6457600080fd5b5035919050565b80356001600160a01b0381168114610a8257600080fd5b919050565b60008060408385031215610a9a57600080fd5b82359150610aaa60208401610a6b565b90509250929050565b600080600080600060808688031215610acb57600080fd5b853594506020860135935060408601359250606086013567ffffffffffffffff811115610af757600080fd5b610b03888289016109bd565b969995985093965092949392505050565b8781526000602060018060a01b03891681840152876040840152866060840152851515608084015284151560a084015260e060c084015283518060e085015260005b81811015610b735785810183015185820161010001528201610b56565b506101009150600082828601015281601f19601f8301168501019250505098975050505050505050565b600060208284031215610baf57600080fd5b6107b582610a6b565b634e487b7160e01b600052601160045260246000fd5b600081610bdd57610bdd610bb8565b506000190190565b83815260406020820152816040820152818360608301376000818301606090810191909152601f909201601f1916010192915050565b634e487b7160e01b600052604160045260246000fd5b600181811c90821680610c4557607f821691505b602082108103610c6557634e487b7160e01b600052602260045260246000fd5b50919050565b601f8211156103f357600081815260208120601f850160051c81016020861015610c925750805b601f850160051c820191505b81811015610cb157828155600101610c9e565b505050505050565b815167ffffffffffffffff811115610cd357610cd3610c1b565b610ce781610ce18454610c31565b84610c6b565b602080601f831160018114610d1c5760008415610d045750858301515b600019600386901b1c1916600185901b178555610cb1565b600085815260208120601f198616915b82811015610d4b57888601518255948401946001909101908401610d2c565b5085821015610d695787850151600019600388901b60f8161c191681555b5050505050600190811b01905550565b600060018201610d8b57610d8b610bb8565b506001019056fe1948e62cb88693562db3600e12aba035ba28da4a0626473ef28234bb89054073a264697066735822122028214411fddcc4b909db82f853ccd7ef8628527f387c24d1a4a62240d232c3b664736f6c63430008140033","opcodes":"PUSH1 0x80 PUSH1 0x40 MSTORE CALLVALUE DUP1 ISZERO PUSH2 0x10 JUMPI PUSH1 0x0 DUP1 REVERT JUMPDEST POP PUSH2 0x1C PUSH1 0x0 CALLER PUSH2 0x4D JUMP JUMPDEST POP PUSH2 0x47 PUSH32 0x1948E62CB88693562DB3600E12ABA035BA28DA4A0626473EF28234BB89054073 CALLER PUSH2 0x4D JUMP JUMPDEST POP PUSH2 0xF9 JUMP JUMPDEST PUSH1 0x0 DUP3 DUP2 MSTORE PUSH1 0x20 DUP2 DUP2 MSTORE PUSH1 0x40 DUP1 DUP4 KECCAK256 PUSH1 0x1 PUSH1 0x1 PUSH1 0xA0 SHL SUB DUP6 AND DUP5 MSTORE SWAP1 SWAP2 MSTORE DUP2 KECCAK256 SLOAD PUSH1 0xFF AND PUSH2 0xEF JUMPI PUSH1 0x0 DUP4 DUP2 MSTORE PUSH1 0x20 DUP2 DUP2 MSTORE PUSH1 0x40 DUP1 DUP4 KECCAK256 PUSH1 0x1 PUSH1 0x1 PUSH1 0xA0 SHL SUB DUP7 AND DUP5 MSTORE SWAP1 SWAP2 MSTORE SWAP1 KECCAK256 DUP1 SLOAD PUSH1 0xFF NOT AND PUSH1 0x1 OR SWAP1 SSTORE PUSH2 0xA7 CALLER SWAP1 JUMP JUMPDEST PUSH1 0x1 PUSH1 0x1 PUSH1 0xA0 SHL SUB AND DUP3 PUSH1 0x1 PUSH1 0x1 PUSH1 0xA0 SHL SUB AND DUP5 PUSH32 0x2F8788117E7EFF1D82E926EC794901D17C78024A50270940304540A733656F0D PUSH1 0x40 MLOAD PUSH1 0x40 MLOAD DUP1 SWAP2 SUB SWAP1 LOG4 POP PUSH1 0x1 PUSH2 0xF3 JUMP JUMPDEST POP PUSH1 0x0 JUMPDEST SWAP3 SWAP2 POP POP JUMP JUMPDEST PUSH2 0xDE8 DUP1 PUSH2 0x108 PUSH1 0x0 CODECOPY PUSH1 0x0 RETURN INVALID PUSH1 0x80 PUSH1 0x40 MSTORE CALLVALUE DUP1 ISZERO PUSH2 0x10 JUMPI PUSH1 0x0 DUP1 REVERT JUMPDEST POP PUSH1 0x4 CALLDATASIZE LT PUSH2 0x10B JUMPI PUSH1 0x0 CALLDATALOAD PUSH1 0xE0 SHR DUP1 PUSH4 0x51B80DFC GT PUSH2 0xA2 JUMPI DUP1 PUSH4 0x91D14854 GT PUSH2 0x71 JUMPI DUP1 PUSH4 0x91D14854 EQ PUSH2 0x21D JUMPI DUP1 PUSH4 0x97B8A3A7 EQ PUSH2 0x230 JUMPI DUP1 PUSH4 0xA217FDDF EQ PUSH2 0x1EF JUMPI DUP1 PUSH4 0xCA89AB9C EQ PUSH2 0x245 JUMPI DUP1 PUSH4 0xD547741F EQ PUSH2 0x258 JUMPI PUSH1 0x0 DUP1 REVERT JUMPDEST DUP1 PUSH4 0x51B80DFC EQ PUSH2 0x1C9 JUMPI DUP1 PUSH4 0x75B238FC EQ PUSH2 0x1EF JUMPI DUP1 PUSH4 0x75BE0B42 EQ PUSH2 0x1F7 JUMPI DUP1 PUSH4 0x8407E1E6 EQ PUSH2 0x20A JUMPI PUSH1 0x0 DUP1 REVERT JUMPDEST DUP1 PUSH4 0x2D4F7602 GT PUSH2 0xDE JUMPI DUP1 PUSH4 0x2D4F7602 EQ PUSH2 0x187 JUMPI DUP1 PUSH4 0x2F2FF15D EQ PUSH2 0x190 JUMPI DUP1 PUSH4 0x36568ABE EQ PUSH2 0x1A3 JUMPI DUP1 PUSH4 0x4DA2529C EQ PUSH2 0x1B6 JUMPI PUSH1 0x0 DUP1 REVERT JUMPDEST DUP1 PUSH4 0x1FFC9A7 EQ PUSH2 0x110 JUMPI DUP1 PUSH4 0x5B9CB3C EQ PUSH2 0x138 JUMPI DUP1 PUSH4 0x15117E84 EQ PUSH2 0x14F JUMPI DUP1 PUSH4 0x248A9CA3 EQ PUSH2 0x164 JUMPI JUMPDEST PUSH1 0x0 DUP1 REVERT JUMPDEST PUSH2 0x123 PUSH2 0x11E CALLDATASIZE PUSH1 0x4 PUSH2 0x993 JUMP JUMPDEST PUSH2 0x26B JUMP JUMPDEST PUSH1 0x40 MLOAD SWAP1 ISZERO ISZERO DUP2 MSTORE PUSH1 0x20 ADD JUMPDEST PUSH1 0x40 MLOAD DUP1 SWAP2 SUB SWAP1 RETURN JUMPDEST PUSH2 0x141 PUSH1 0x3 SLOAD DUP2 JUMP JUMPDEST PUSH1 0x40 MLOAD SWAP1 DUP2 MSTORE PUSH1 0x20 ADD PUSH2 0x12F JUMP JUMPDEST PUSH2 0x162 PUSH2 0x15D CALLDATASIZE PUSH1 0x4 PUSH2 0xA06 JUMP JUMPDEST PUSH2 0x2A2 JUMP JUMPDEST STOP JUMPDEST PUSH2 0x141 PUSH2 0x172 CALLDATASIZE PUSH1 0x4 PUSH2 0xA52 JUMP JUMPDEST PUSH1 0x0 SWAP1 DUP2 MSTORE PUSH1 0x20 DUP2 SWAP1 MSTORE PUSH1 0x40 SWAP1 KECCAK256 PUSH1 0x1 ADD SLOAD SWAP1 JUMP JUMPDEST PUSH2 0x141 PUSH1 0x4 SLOAD DUP2 JUMP JUMPDEST PUSH2 0x162 PUSH2 0x19E CALLDATASIZE PUSH1 0x4 PUSH2 0xA87 JUMP JUMPDEST PUSH2 0x395 JUMP JUMPDEST PUSH2 0x162 PUSH2 0x1B1 CALLDATASIZE PUSH1 0x4 PUSH2 0xA87 JUMP JUMPDEST PUSH2 0x3C0 JUMP JUMPDEST PUSH2 0x162 PUSH2 0x1C4 CALLDATASIZE PUSH1 0x4 PUSH2 0xAB3 JUMP JUMPDEST PUSH2 0x3F8 JUMP JUMPDEST PUSH2 0x1DC PUSH2 0x1D7 CALLDATASIZE PUSH1 0x4 PUSH2 0xA52 JUMP JUMPDEST PUSH2 0x67A JUMP JUMPDEST PUSH1 0x40 MLOAD PUSH2 0x12F SWAP8 SWAP7 SWAP6 SWAP5 SWAP4 SWAP3 SWAP2 SWAP1 PUSH2 0xB14 JUMP JUMPDEST PUSH2 0x141 PUSH1 0x0 DUP2 JUMP JUMPDEST PUSH2 0x123 PUSH2 0x205 CALLDATASIZE PUSH1 0x4 PUSH2 0xA52 JUMP JUMPDEST PUSH2 0x77A JUMP JUMPDEST PUSH2 0x162 PUSH2 0x218 CALLDATASIZE PUSH1 0x4 PUSH2 0xB9D JUMP JUMPDEST PUSH2 0x7BC JUMP JUMPDEST PUSH2 0x123 PUSH2 0x22B CALLDATASIZE PUSH1 0x4 PUSH2 0xA87 JUMP JUMPDEST PUSH2 0x7E3 JUMP JUMPDEST PUSH2 0x141 PUSH1 0x0 DUP1 MLOAD PUSH1 0x20 PUSH2 0xD93 DUP4 CODECOPY DUP2 MLOAD SWAP2 MSTORE DUP2 JUMP JUMPDEST PUSH2 0x162 PUSH2 0x253 CALLDATASIZE PUSH1 0x4 PUSH2 0xB9D JUMP JUMPDEST PUSH2 0x80C JUMP JUMPDEST PUSH2 0x162 PUSH2 0x266 CALLDATASIZE PUSH1 0x4 PUSH2 0xA87 JUMP JUMPDEST PUSH2 0x82B JUMP JUMPDEST PUSH1 0x0 PUSH1 0x1 PUSH1 0x1 PUSH1 0xE0 SHL SUB NOT DUP3 AND PUSH4 0x7965DB0B PUSH1 0xE0 SHL EQ DUP1 PUSH2 0x29C JUMPI POP PUSH4 0x1FFC9A7 PUSH1 0xE0 SHL PUSH1 0x1 PUSH1 0x1 PUSH1 0xE0 SHL SUB NOT DUP4 AND EQ JUMPDEST SWAP3 SWAP2 POP POP JUMP JUMPDEST PUSH1 0x0 DUP1 MLOAD PUSH1 0x20 PUSH2 0xD93 DUP4 CODECOPY DUP2 MLOAD SWAP2 MSTORE PUSH2 0x2BA DUP2 PUSH2 0x850 JUMP JUMPDEST PUSH1 0x0 DUP5 DUP2 MSTORE PUSH1 0x1 PUSH1 0x20 MSTORE PUSH1 0x40 SWAP1 KECCAK256 PUSH1 0x4 ADD SLOAD PUSH1 0xFF AND PUSH2 0x318 JUMPI PUSH1 0x40 MLOAD PUSH3 0x461BCD PUSH1 0xE5 SHL DUP2 MSTORE PUSH1 0x20 PUSH1 0x4 DUP3 ADD MSTORE PUSH1 0x15 PUSH1 0x24 DUP3 ADD MSTORE PUSH21 0x44656C65676174696F6E206E6F7420616374697665 PUSH1 0x58 SHL PUSH1 0x44 DUP3 ADD MSTORE PUSH1 0x64 ADD JUMPDEST PUSH1 0x40 MLOAD DUP1 SWAP2 SUB SWAP1 REVERT JUMPDEST PUSH1 0x0 DUP5 DUP2 MSTORE PUSH1 0x1 PUSH1 0x20 MSTORE PUSH1 0x40 DUP2 KECCAK256 PUSH1 0x4 SWAP1 DUP2 ADD DUP1 SLOAD PUSH2 0xFFFF NOT AND PUSH2 0x100 OR SWAP1 SSTORE DUP1 SLOAD SWAP2 PUSH2 0x344 DUP4 PUSH2 0xBCE JUMP JUMPDEST SWAP2 SWAP1 POP SSTORE POP CALLER PUSH1 0x1 PUSH1 0x1 PUSH1 0xA0 SHL SUB AND DUP5 PUSH32 0x35A1E95E78DFFD94DF4DE2AD5B663AD63193A0596EECB43D5FC76FED9006AE3 TIMESTAMP DUP7 DUP7 PUSH1 0x40 MLOAD PUSH2 0x387 SWAP4 SWAP3 SWAP2 SWAP1 PUSH2 0xBE5 JUMP JUMPDEST PUSH1 0x40 MLOAD DUP1 SWAP2 SUB SWAP1 LOG3 POP POP POP POP JUMP JUMPDEST PUSH1 0x0 DUP3 DUP2 MSTORE PUSH1 0x20 DUP2 SWAP1 MSTORE PUSH1 0x40 SWAP1 KECCAK256 PUSH1 0x1 ADD SLOAD PUSH2 0x3B0 DUP2 PUSH2 0x850 JUMP JUMPDEST PUSH2 0x3BA DUP4 DUP4 PUSH2 0x85D JUMP JUMPDEST POP POP POP POP JUMP JUMPDEST PUSH1 0x1 PUSH1 0x1 PUSH1 0xA0 SHL SUB DUP2 AND CALLER EQ PUSH2 0x3E9 JUMPI PUSH1 0x40 MLOAD PUSH4 0x334BD919 PUSH1 0xE1 SHL DUP2 MSTORE PUSH1 0x4 ADD PUSH1 0x40 MLOAD DUP1 SWAP2 SUB SWAP1 REVERT JUMPDEST PUSH2 0x3F3 DUP3 DUP3 PUSH2 0x8EF JUMP JUMPDEST POP POP POP JUMP JUMPDEST PUSH1 0x0 DUP1 MLOAD PUSH1 0x20 PUSH2 0xD93 DUP4 CODECOPY DUP2 MLOAD SWAP2 MSTORE PUSH2 0x410 DUP2 PUSH2 0x850 JUMP JUMPDEST PUSH1 0x0 DUP7 DUP2 MSTORE PUSH1 0x1 PUSH1 0x20 MSTORE PUSH1 0x40 SWAP1 KECCAK256 PUSH1 0x4 ADD SLOAD PUSH1 0xFF AND ISZERO PUSH2 0x472 JUMPI PUSH1 0x40 MLOAD PUSH3 0x461BCD PUSH1 0xE5 SHL DUP2 MSTORE PUSH1 0x20 PUSH1 0x4 DUP3 ADD MSTORE PUSH1 0x19 PUSH1 0x24 DUP3 ADD MSTORE PUSH32 0x44656C65676174696F6E20616C72656164792061637469766500000000000000 PUSH1 0x44 DUP3 ADD MSTORE PUSH1 0x64 ADD PUSH2 0x30F JUMP JUMPDEST TIMESTAMP DUP5 GT PUSH2 0x4C1 JUMPI PUSH1 0x40 MLOAD PUSH3 0x461BCD PUSH1 0xE5 SHL DUP2 MSTORE PUSH1 0x20 PUSH1 0x4 DUP3 ADD MSTORE PUSH1 0x1C PUSH1 0x24 DUP3 ADD MSTORE PUSH32 0x457870697279206D75737420626520696E207468652066757475726500000000 PUSH1 0x44 DUP3 ADD MSTORE PUSH1 0x64 ADD PUSH2 0x30F JUMP JUMPDEST PUSH1 0x40 MLOAD DUP1 PUSH1 0xE0 ADD PUSH1 0x40 MSTORE DUP1 DUP7 DUP2 MSTORE PUSH1 0x20 ADD CALLER PUSH1 0x1 PUSH1 0x1 PUSH1 0xA0 SHL SUB AND DUP2 MSTORE PUSH1 0x20 ADD TIMESTAMP DUP2 MSTORE PUSH1 0x20 ADD DUP6 DUP2 MSTORE PUSH1 0x20 ADD PUSH1 0x1 ISZERO ISZERO DUP2 MSTORE PUSH1 0x20 ADD PUSH1 0x0 ISZERO ISZERO DUP2 MSTORE PUSH1 0x20 ADD DUP5 DUP5 DUP1 DUP1 PUSH1 0x1F ADD PUSH1 0x20 DUP1 SWAP2 DIV MUL PUSH1 0x20 ADD PUSH1 0x40 MLOAD SWAP1 DUP2 ADD PUSH1 0x40 MSTORE DUP1 SWAP4 SWAP3 SWAP2 SWAP1 DUP2 DUP2 MSTORE PUSH1 0x20 ADD DUP4 DUP4 DUP1 DUP3 DUP5 CALLDATACOPY PUSH1 0x0 SWAP3 ADD DUP3 SWAP1 MSTORE POP SWAP4 SWAP1 SWAP5 MSTORE POP POP DUP9 DUP2 MSTORE PUSH1 0x1 PUSH1 0x20 DUP2 DUP2 MSTORE PUSH1 0x40 SWAP3 DUP4 SWAP1 KECCAK256 DUP6 MLOAD DUP2 SSTORE SWAP1 DUP6 ADD MLOAD SWAP2 DUP2 ADD DUP1 SLOAD PUSH1 0x1 PUSH1 0x1 PUSH1 0xA0 SHL SUB SWAP1 SWAP4 AND PUSH1 0x1 PUSH1 0x1 PUSH1 0xA0 SHL SUB NOT SWAP1 SWAP4 AND SWAP3 SWAP1 SWAP3 OR SWAP1 SWAP2 SSTORE SWAP1 DUP4 ADD MLOAD PUSH1 0x2 DUP3 ADD SSTORE PUSH1 0x60 DUP4 ADD MLOAD PUSH1 0x3 DUP3 ADD SSTORE PUSH1 0x80 DUP4 ADD MLOAD PUSH1 0x4 DUP3 ADD DUP1 SLOAD PUSH1 0xA0 DUP7 ADD MLOAD ISZERO ISZERO PUSH2 0x100 MUL PUSH2 0xFF00 NOT SWAP4 ISZERO ISZERO SWAP4 SWAP1 SWAP4 AND PUSH2 0xFFFF NOT SWAP1 SWAP2 AND OR SWAP2 SWAP1 SWAP2 OR SWAP1 SSTORE PUSH1 0xC0 DUP4 ADD MLOAD SWAP1 SWAP2 POP PUSH1 0x5 DUP3 ADD SWAP1 PUSH2 0x5CB SWAP1 DUP3 PUSH2 0xCB9 JUMP JUMPDEST POP POP PUSH1 0x2 DUP1 SLOAD PUSH1 0x1 DUP2 ADD DUP3 SSTORE PUSH1 0x0 SWAP2 DUP3 MSTORE PUSH32 0x405787FA12A823E0F2B7631CC41B3BA8828B3321CA811111FA75CD3AA3BB5ACE ADD DUP9 SWAP1 SSTORE PUSH1 0x3 DUP1 SLOAD SWAP3 POP SWAP1 PUSH2 0x611 DUP4 PUSH2 0xD79 JUMP JUMPDEST SWAP1 SWAP2 SSTORE POP POP PUSH1 0x4 DUP1 SLOAD SWAP1 PUSH1 0x0 PUSH2 0x626 DUP4 PUSH2 0xD79 JUMP JUMPDEST SWAP2 SWAP1 POP SSTORE POP CALLER PUSH1 0x1 PUSH1 0x1 PUSH1 0xA0 SHL SUB AND DUP6 DUP8 PUSH32 0xE92C6290037630395F8330CCE37A9F2B1A565EF0BFDDF67EA50B26EF7CDFCCD9 DUP8 DUP8 DUP8 PUSH1 0x40 MLOAD PUSH2 0x66A SWAP4 SWAP3 SWAP2 SWAP1 PUSH2 0xBE5 JUMP JUMPDEST PUSH1 0x40 MLOAD DUP1 SWAP2 SUB SWAP1 LOG4 POP POP POP POP POP POP JUMP JUMPDEST PUSH1 0x0 DUP2 DUP2 MSTORE PUSH1 0x1 PUSH1 0x20 DUP2 SWAP1 MSTORE PUSH1 0x40 DUP3 KECCAK256 DUP1 SLOAD SWAP2 DUP2 ADD SLOAD PUSH1 0x2 DUP3 ADD SLOAD PUSH1 0x3 DUP4 ADD SLOAD PUSH1 0x4 DUP5 ADD SLOAD PUSH1 0x5 DUP6 ADD DUP1 SLOAD DUP9 SWAP8 DUP9 SWAP8 DUP9 SWAP8 DUP9 SWAP8 DUP9 SWAP8 PUSH1 0x60 SWAP8 SWAP4 SWAP7 SWAP5 SWAP6 PUSH1 0x1 PUSH1 0x1 PUSH1 0xA0 SHL SUB SWAP1 SWAP4 AND SWAP5 SWAP2 SWAP4 SWAP1 SWAP3 PUSH1 0xFF DUP1 DUP4 AND SWAP4 PUSH2 0x100 SWAP1 SWAP4 DIV AND SWAP2 SWAP1 DUP2 SWAP1 PUSH2 0x6E0 SWAP1 PUSH2 0xC31 JUMP JUMPDEST DUP1 PUSH1 0x1F ADD PUSH1 0x20 DUP1 SWAP2 DIV MUL PUSH1 0x20 ADD PUSH1 0x40 MLOAD SWAP1 DUP2 ADD PUSH1 0x40 MSTORE DUP1 SWAP3 SWAP2 SWAP1 DUP2 DUP2 MSTORE PUSH1 0x20 ADD DUP3 DUP1 SLOAD PUSH2 0x70C SWAP1 PUSH2 0xC31 JUMP JUMPDEST DUP1 ISZERO PUSH2 0x759 JUMPI DUP1 PUSH1 0x1F LT PUSH2 0x72E JUMPI PUSH2 0x100 DUP1 DUP4 SLOAD DIV MUL DUP4 MSTORE SWAP2 PUSH1 0x20 ADD SWAP2 PUSH2 0x759 JUMP JUMPDEST DUP3 ADD SWAP2 SWAP1 PUSH1 0x0 MSTORE PUSH1 0x20 PUSH1 0x0 KECCAK256 SWAP1 JUMPDEST DUP2 SLOAD DUP2 MSTORE SWAP1 PUSH1 0x1 ADD SWAP1 PUSH1 0x20 ADD DUP1 DUP4 GT PUSH2 0x73C JUMPI DUP3 SWAP1 SUB PUSH1 0x1F AND DUP3 ADD SWAP2 JUMPDEST POP POP POP POP POP SWAP1 POP SWAP8 POP SWAP8 POP SWAP8 POP SWAP8 POP SWAP8 POP SWAP8 POP SWAP8 POP POP SWAP2 SWAP4 SWAP6 SWAP8 SWAP1 SWAP3 SWAP5 SWAP7 POP JUMP JUMPDEST PUSH1 0x0 DUP2 DUP2 MSTORE PUSH1 0x1 PUSH1 0x20 MSTORE PUSH1 0x40 DUP2 KECCAK256 PUSH1 0x4 DUP2 ADD SLOAD PUSH1 0xFF AND DUP1 ISZERO PUSH2 0x7A6 JUMPI POP PUSH1 0x4 DUP2 ADD SLOAD PUSH2 0x100 SWAP1 DIV PUSH1 0xFF AND ISZERO JUMPDEST DUP1 ISZERO PUSH2 0x7B5 JUMPI POP DUP1 PUSH1 0x3 ADD SLOAD TIMESTAMP LT JUMPDEST SWAP4 SWAP3 POP POP POP JUMP JUMPDEST PUSH1 0x0 PUSH2 0x7C7 DUP2 PUSH2 0x850 JUMP JUMPDEST PUSH2 0x7DF PUSH1 0x0 DUP1 MLOAD PUSH1 0x20 PUSH2 0xD93 DUP4 CODECOPY DUP2 MLOAD SWAP2 MSTORE DUP4 PUSH2 0x395 JUMP JUMPDEST POP POP JUMP JUMPDEST PUSH1 0x0 SWAP2 DUP3 MSTORE PUSH1 0x20 DUP3 DUP2 MSTORE PUSH1 0x40 DUP1 DUP5 KECCAK256 PUSH1 0x1 PUSH1 0x1 PUSH1 0xA0 SHL SUB SWAP4 SWAP1 SWAP4 AND DUP5 MSTORE SWAP2 SWAP1 MSTORE SWAP1 KECCAK256 SLOAD PUSH1 0xFF AND SWAP1 JUMP JUMPDEST PUSH1 0x0 PUSH2 0x817 DUP2 PUSH2 0x850 JUMP JUMPDEST PUSH2 0x7DF PUSH1 0x0 DUP1 MLOAD PUSH1 0x20 PUSH2 0xD93 DUP4 CODECOPY DUP2 MLOAD SWAP2 MSTORE DUP4 JUMPDEST PUSH1 0x0 DUP3 DUP2 MSTORE PUSH1 0x20 DUP2 SWAP1 MSTORE PUSH1 0x40 SWAP1 KECCAK256 PUSH1 0x1 ADD SLOAD PUSH2 0x846 DUP2 PUSH2 0x850 JUMP JUMPDEST PUSH2 0x3BA DUP4 DUP4 PUSH2 0x8EF JUMP JUMPDEST PUSH2 0x85A DUP2 CALLER PUSH2 0x95A JUMP JUMPDEST POP JUMP JUMPDEST PUSH1 0x0 PUSH2 0x869 DUP4 DUP4 PUSH2 0x7E3 JUMP JUMPDEST PUSH2 0x8E7 JUMPI PUSH1 0x0 DUP4 DUP2 MSTORE PUSH1 0x20 DUP2 DUP2 MSTORE PUSH1 0x40 DUP1 DUP4 KECCAK256 PUSH1 0x1 PUSH1 0x1 PUSH1 0xA0 SHL SUB DUP7 AND DUP5 MSTORE SWAP1 SWAP2 MSTORE SWAP1 KECCAK256 DUP1 SLOAD PUSH1 0xFF NOT AND PUSH1 0x1 OR SWAP1 SSTORE PUSH2 0x89F CALLER SWAP1 JUMP JUMPDEST PUSH1 0x1 PUSH1 0x1 PUSH1 0xA0 SHL SUB AND DUP3 PUSH1 0x1 PUSH1 0x1 PUSH1 0xA0 SHL SUB AND DUP5 PUSH32 0x2F8788117E7EFF1D82E926EC794901D17C78024A50270940304540A733656F0D PUSH1 0x40 MLOAD PUSH1 0x40 MLOAD DUP1 SWAP2 SUB SWAP1 LOG4 POP PUSH1 0x1 PUSH2 0x29C JUMP JUMPDEST POP PUSH1 0x0 PUSH2 0x29C JUMP JUMPDEST PUSH1 0x0 PUSH2 0x8FB DUP4 DUP4 PUSH2 0x7E3 JUMP JUMPDEST ISZERO PUSH2 0x8E7 JUMPI PUSH1 0x0 DUP4 DUP2 MSTORE PUSH1 0x20 DUP2 DUP2 MSTORE PUSH1 0x40 DUP1 DUP4 KECCAK256 PUSH1 0x1 PUSH1 0x1 PUSH1 0xA0 SHL SUB DUP7 AND DUP1 DUP6 MSTORE SWAP3 MSTORE DUP1 DUP4 KECCAK256 DUP1 SLOAD PUSH1 0xFF NOT AND SWAP1 SSTORE MLOAD CALLER SWAP3 DUP7 SWAP2 PUSH32 0xF6391F5C32D9C69D2A47EA670B442974B53935D1EDC7FD64EB21E047A839171B SWAP2 SWAP1 LOG4 POP PUSH1 0x1 PUSH2 0x29C JUMP JUMPDEST PUSH2 0x964 DUP3 DUP3 PUSH2 0x7E3 JUMP JUMPDEST PUSH2 0x7DF JUMPI PUSH1 0x40 MLOAD PUSH4 0xE2517D3F PUSH1 0xE0 SHL DUP2 MSTORE PUSH1 0x1 PUSH1 0x1 PUSH1 0xA0 SHL SUB DUP3 AND PUSH1 0x4 DUP3 ADD MSTORE PUSH1 0x24 DUP2 ADD DUP4 SWAP1 MSTORE PUSH1 0x44 ADD PUSH2 0x30F JUMP JUMPDEST PUSH1 0x0 PUSH1 0x20 DUP3 DUP5 SUB SLT ISZERO PUSH2 0x9A5 JUMPI PUSH1 0x0 DUP1 REVERT JUMPDEST DUP2 CALLDATALOAD PUSH1 0x1 PUSH1 0x1 PUSH1 0xE0 SHL SUB NOT DUP2 AND DUP2 EQ PUSH2 0x7B5 JUMPI PUSH1 0x0 DUP1 REVERT JUMPDEST PUSH1 0x0 DUP1 DUP4 PUSH1 0x1F DUP5 ADD SLT PUSH2 0x9CF JUMPI PUSH1 0x0 DUP1 REVERT JUMPDEST POP DUP2 CALLDATALOAD PUSH8 0xFFFFFFFFFFFFFFFF DUP2 GT ISZERO PUSH2 0x9E7 JUMPI PUSH1 0x0 DUP1 REVERT JUMPDEST PUSH1 0x20 DUP4 ADD SWAP2 POP DUP4 PUSH1 0x20 DUP3 DUP6 ADD ADD GT ISZERO PUSH2 0x9FF JUMPI PUSH1 0x0 DUP1 REVERT JUMPDEST SWAP3 POP SWAP3 SWAP1 POP JUMP JUMPDEST PUSH1 0x0 DUP1 PUSH1 0x0 PUSH1 0x40 DUP5 DUP7 SUB SLT ISZERO PUSH2 0xA1B JUMPI PUSH1 0x0 DUP1 REVERT JUMPDEST DUP4 CALLDATALOAD SWAP3 POP PUSH1 0x20 DUP5 ADD CALLDATALOAD PUSH8 0xFFFFFFFFFFFFFFFF DUP2 GT ISZERO PUSH2 0xA39 JUMPI PUSH1 0x0 DUP1 REVERT JUMPDEST PUSH2 0xA45 DUP7 DUP3 DUP8 ADD PUSH2 0x9BD JUMP JUMPDEST SWAP5 SWAP8 SWAP1 SWAP7 POP SWAP4 SWAP5 POP POP POP POP JUMP JUMPDEST PUSH1 0x0 PUSH1 0x20 DUP3 DUP5 SUB SLT ISZERO PUSH2 0xA64 JUMPI PUSH1 0x0 DUP1 REVERT JUMPDEST POP CALLDATALOAD SWAP2 SWAP1 POP JUMP JUMPDEST DUP1 CALLDATALOAD PUSH1 0x1 PUSH1 0x1 PUSH1 0xA0 SHL SUB DUP2 AND DUP2 EQ PUSH2 0xA82 JUMPI PUSH1 0x0 DUP1 REVERT JUMPDEST SWAP2 SWAP1 POP JUMP JUMPDEST PUSH1 0x0 DUP1 PUSH1 0x40 DUP4 DUP6 SUB SLT ISZERO PUSH2 0xA9A JUMPI PUSH1 0x0 DUP1 REVERT JUMPDEST DUP3 CALLDATALOAD SWAP2 POP PUSH2 0xAAA PUSH1 0x20 DUP5 ADD PUSH2 0xA6B JUMP JUMPDEST SWAP1 POP SWAP3 POP SWAP3 SWAP1 POP JUMP JUMPDEST PUSH1 0x0 DUP1 PUSH1 0x0 DUP1 PUSH1 0x0 PUSH1 0x80 DUP7 DUP9 SUB SLT ISZERO PUSH2 0xACB JUMPI PUSH1 0x0 DUP1 REVERT JUMPDEST DUP6 CALLDATALOAD SWAP5 POP PUSH1 0x20 DUP7 ADD CALLDATALOAD SWAP4 POP PUSH1 0x40 DUP7 ADD CALLDATALOAD SWAP3 POP PUSH1 0x60 DUP7 ADD CALLDATALOAD PUSH8 0xFFFFFFFFFFFFFFFF DUP2 GT ISZERO PUSH2 0xAF7 JUMPI PUSH1 0x0 DUP1 REVERT JUMPDEST PUSH2 0xB03 DUP9 DUP3 DUP10 ADD PUSH2 0x9BD JUMP JUMPDEST SWAP7 SWAP10 SWAP6 SWAP9 POP SWAP4 SWAP7 POP SWAP3 SWAP5 SWAP4 SWAP3 POP POP POP JUMP JUMPDEST DUP8 DUP2 MSTORE PUSH1 0x0 PUSH1 0x20 PUSH1 0x1 DUP1 PUSH1 0xA0 SHL SUB DUP10 AND DUP2 DUP5 ADD MSTORE DUP8 PUSH1 0x40 DUP5 ADD MSTORE DUP7 PUSH1 0x60 DUP5 ADD MSTORE DUP6 ISZERO ISZERO PUSH1 0x80 DUP5 ADD MSTORE DUP5 ISZERO ISZERO PUSH1 0xA0 DUP5 ADD MSTORE PUSH1 0xE0 PUSH1 0xC0 DUP5 ADD MSTORE DUP4 MLOAD DUP1 PUSH1 0xE0 DUP6 ADD MSTORE PUSH1 0x0 JUMPDEST DUP2 DUP2 LT ISZERO PUSH2 0xB73 JUMPI DUP6 DUP2 ADD DUP4 ADD MLOAD DUP6 DUP3 ADD PUSH2 0x100 ADD MSTORE DUP3 ADD PUSH2 0xB56 JUMP JUMPDEST POP PUSH2 0x100 SWAP2 POP PUSH1 0x0 DUP3 DUP3 DUP7 ADD ADD MSTORE DUP2 PUSH1 0x1F NOT PUSH1 0x1F DUP4 ADD AND DUP6 ADD ADD SWAP3 POP POP POP SWAP9 SWAP8 POP POP POP POP POP POP POP POP JUMP JUMPDEST PUSH1 0x0 PUSH1 0x20 DUP3 DUP5 SUB SLT ISZERO PUSH2 0xBAF JUMPI PUSH1 0x0 DUP1 REVERT JUMPDEST PUSH2 0x7B5 DUP3 PUSH2 0xA6B JUMP JUMPDEST PUSH4 0x4E487B71 PUSH1 0xE0 SHL PUSH1 0x0 MSTORE PUSH1 0x11 PUSH1 0x4 MSTORE PUSH1 0x24 PUSH1 0x0 REVERT JUMPDEST PUSH1 0x0 DUP2 PUSH2 0xBDD JUMPI PUSH2 0xBDD PUSH2 0xBB8 JUMP JUMPDEST POP PUSH1 0x0 NOT ADD SWAP1 JUMP JUMPDEST DUP4 DUP2 MSTORE PUSH1 0x40 PUSH1 0x20 DUP3 ADD MSTORE DUP2 PUSH1 0x40 DUP3 ADD MSTORE DUP2 DUP4 PUSH1 0x60 DUP4 ADD CALLDATACOPY PUSH1 0x0 DUP2 DUP4 ADD PUSH1 0x60 SWAP1 DUP2 ADD SWAP2 SWAP1 SWAP2 MSTORE PUSH1 0x1F SWAP1 SWAP3 ADD PUSH1 0x1F NOT AND ADD ADD SWAP3 SWAP2 POP POP JUMP JUMPDEST PUSH4 0x4E487B71 PUSH1 0xE0 SHL PUSH1 0x0 MSTORE PUSH1 0x41 PUSH1 0x4 MSTORE PUSH1 0x24 PUSH1 0x0 REVERT JUMPDEST PUSH1 0x1 DUP2 DUP2 SHR SWAP1 DUP3 AND DUP1 PUSH2 0xC45 JUMPI PUSH1 0x7F DUP3 AND SWAP2 POP JUMPDEST PUSH1 0x20 DUP3 LT DUP2 SUB PUSH2 0xC65 JUMPI PUSH4 0x4E487B71 PUSH1 0xE0 SHL PUSH1 0x0 MSTORE PUSH1 0x22 PUSH1 0x4 MSTORE PUSH1 0x24 PUSH1 0x0 REVERT JUMPDEST POP SWAP2 SWAP1 POP JUMP JUMPDEST PUSH1 0x1F DUP3 GT ISZERO PUSH2 0x3F3 JUMPI PUSH1 0x0 DUP2 DUP2 MSTORE PUSH1 0x20 DUP2 KECCAK256 PUSH1 0x1F DUP6 ADD PUSH1 0x5 SHR DUP2 ADD PUSH1 0x20 DUP7 LT ISZERO PUSH2 0xC92 JUMPI POP DUP1 JUMPDEST PUSH1 0x1F DUP6 ADD PUSH1 0x5 SHR DUP3 ADD SWAP2 POP JUMPDEST DUP2 DUP2 LT ISZERO PUSH2 0xCB1 JUMPI DUP3 DUP2 SSTORE PUSH1 0x1 ADD PUSH2 0xC9E JUMP JUMPDEST POP POP POP POP POP POP JUMP JUMPDEST DUP2 MLOAD PUSH8 0xFFFFFFFFFFFFFFFF DUP2 GT ISZERO PUSH2 0xCD3 JUMPI PUSH2 0xCD3 PUSH2 0xC1B JUMP JUMPDEST PUSH2 0xCE7 DUP2 PUSH2 0xCE1 DUP5 SLOAD PUSH2 0xC31 JUMP JUMPDEST DUP5 PUSH2 0xC6B JUMP JUMPDEST PUSH1 0x20 DUP1 PUSH1 0x1F DUP4 GT PUSH1 0x1 DUP2 EQ PUSH2 0xD1C JUMPI PUSH1 0x0 DUP5 ISZERO PUSH2 0xD04 JUMPI POP DUP6 DUP4 ADD MLOAD JUMPDEST PUSH1 0x0 NOT PUSH1 0x3 DUP7 SWAP1 SHL SHR NOT AND PUSH1 0x1 DUP6 SWAP1 SHL OR DUP6 SSTORE PUSH2 0xCB1 JUMP JUMPDEST PUSH1 0x0 DUP6 DUP2 MSTORE PUSH1 0x20 DUP2 KECCAK256 PUSH1 0x1F NOT DUP7 AND SWAP2 JUMPDEST DUP3 DUP2 LT ISZERO PUSH2 0xD4B JUMPI DUP9 DUP7 ADD MLOAD DUP3 SSTORE SWAP5 DUP5 ADD SWAP5 PUSH1 0x1 SWAP1 SWAP2 ADD SWAP1 DUP5 ADD PUSH2 0xD2C JUMP JUMPDEST POP DUP6 DUP3 LT ISZERO PUSH2 0xD69 JUMPI DUP8 DUP6 ADD MLOAD PUSH1 0x0 NOT PUSH1 0x3 DUP9 SWAP1 SHL PUSH1 0xF8 AND SHR NOT AND DUP2 SSTORE JUMPDEST POP POP POP POP POP PUSH1 0x1 SWAP1 DUP2 SHL ADD SWAP1 SSTORE POP JUMP JUMPDEST PUSH1 0x0 PUSH1 0x1 DUP3 ADD PUSH2 0xD8B JUMPI PUSH2 0xD8B PUSH2 0xBB8 JUMP JUMPDEST POP PUSH1 0x1 ADD SWAP1 JUMP INVALID NOT BASEFEE 0xE6 0x2C 0xB8 DUP7 SWAP4 JUMP 0x2D 0xB3 PUSH1 0xE SLT 0xAB LOG0 CALLDATALOAD 0xBA 0x28 0xDA 0x4A MOD 0x26 SELFBALANCE RETURNDATACOPY CALLCODE DUP3 CALLVALUE 0xBB DUP10 SDIV BLOCKHASH PUSH20 0xA264697066735822122028214411FDDCC4B909DB DUP3 0xF8 MSTORE8 0xCC 0xD7 0xEF DUP7 0x28 MSTORE PUSH32 0x387C24D1A4A62240D232C3B664736F6C63430008140033000000000000000000 "},"methodIdentifiers":{"ADMIN_ROLE()":"75b238fc","DEFAULT_ADMIN_ROLE()":"a217fddf","DELEGATOR_ROLE()":"97b8a3a7","activeDelegations()":"2d4f7602","getDelegation(bytes32)":"51b80dfc","getRoleAdmin(bytes32)":"248a9ca3","grantDelegator(address)":"8407e1e6","grantRole(bytes32,address)":"2f2ff15d","hasRole(bytes32,address)":"91d14854","isDelegationActive(bytes32)":"75be0b42","registerDelegation(bytes32,bytes32,uint256,string)":"4da2529c","renounceRole(bytes32,address)":"36568abe","revokeDelegation(bytes32,string)":"15117e84","revokeDelegator(address)":"ca89ab9c","revokeRole(bytes32,address)":"d547741f","supportsInterface(bytes4)":"01ffc9a7","totalDelegations()":"05b9cb3c"}}}}}